{
  "contractName": "Recycloan",
  "abi": [
    {
      "constant": true,
      "inputs": [],
      "name": "index",
      "outputs": [
        {
          "name": "",
          "type": "uint256"
        }
      ],
      "payable": false,
      "stateMutability": "view",
      "type": "function"
    },
    {
      "constant": true,
      "inputs": [
        {
          "name": "",
          "type": "uint256"
        }
      ],
      "name": "borrowers",
      "outputs": [
        {
          "name": "",
          "type": "address"
        }
      ],
      "payable": false,
      "stateMutability": "view",
      "type": "function"
    },
    {
      "constant": true,
      "inputs": [],
      "name": "amount",
      "outputs": [
        {
          "name": "",
          "type": "uint256"
        }
      ],
      "payable": false,
      "stateMutability": "view",
      "type": "function"
    },
    {
      "constant": true,
      "inputs": [],
      "name": "lender",
      "outputs": [
        {
          "name": "",
          "type": "address"
        }
      ],
      "payable": false,
      "stateMutability": "view",
      "type": "function"
    },
    {
      "inputs": [],
      "payable": false,
      "stateMutability": "nonpayable",
      "type": "constructor"
    },
    {
      "constant": false,
      "inputs": [
        {
          "name": "initialBorrowers",
          "type": "address[]"
        }
      ],
      "name": "lend",
      "outputs": [],
      "payable": true,
      "stateMutability": "payable",
      "type": "function"
    },
    {
      "constant": false,
      "inputs": [],
      "name": "repay",
      "outputs": [],
      "payable": false,
      "stateMutability": "nonpayable",
      "type": "function"
    },
    {
      "constant": false,
      "inputs": [
        {
          "name": "borrower",
          "type": "address"
        }
      ],
      "name": "addBorrower",
      "outputs": [],
      "payable": false,
      "stateMutability": "nonpayable",
      "type": "function"
    },
    {
      "constant": true,
      "inputs": [],
      "name": "getBorrowers",
      "outputs": [
        {
          "name": "",
          "type": "address[]"
        }
      ],
      "payable": false,
      "stateMutability": "view",
      "type": "function"
    },
    {
      "constant": true,
      "inputs": [],
      "name": "getAmount",
      "outputs": [
        {
          "name": "",
          "type": "uint256"
        }
      ],
      "payable": false,
      "stateMutability": "view",
      "type": "function"
    }
  ],
  "bytecode": "0x608060405234801561001057600080fd5b50336000806101000a81548173ffffffffffffffffffffffffffffffffffffffff021916908373ffffffffffffffffffffffffffffffffffffffff1602179055506108c8806100606000396000f3fe6080604052600436106100865760003560e01c80637924d93f116100595780637924d93f146101f1578063aa8c217c1461026c578063bcead63e14610297578063d321fe29146102ee578063e3a8e29c1461031957610086565b80632986c0e51461008b5780633d89a51f146100b6578063402d88831461016e5780636854786a14610185575b600080fd5b34801561009757600080fd5b506100a061036a565b6040518082815260200191505060405180910390f35b61016c600480360360208110156100cc57600080fd5b81019080803590602001906401000000008111156100e957600080fd5b8201836020820111156100fb57600080fd5b8035906020019184602083028401116401000000008311171561011d57600080fd5b919080806020026020016040519081016040528093929190818152602001838360200280828437600081840152601f19601f820116905080830192505050505050509192919290505050610370565b005b34801561017a57600080fd5b506101836104ac565b005b34801561019157600080fd5b5061019a61060e565b6040518080602001828103825283818151815260200191508051906020019060200280838360005b838110156101dd5780820151818401526020810190506101c2565b505050509050019250505060405180910390f35b3480156101fd57600080fd5b5061022a6004803603602081101561021457600080fd5b810190808035906020019092919050505061069c565b604051808273ffffffffffffffffffffffffffffffffffffffff1673ffffffffffffffffffffffffffffffffffffffff16815260200191505060405180910390f35b34801561027857600080fd5b506102816106d8565b6040518082815260200191505060405180910390f35b3480156102a357600080fd5b506102ac6106de565b604051808273ffffffffffffffffffffffffffffffffffffffff1673ffffffffffffffffffffffffffffffffffffffff16815260200191505060405180910390f35b3480156102fa57600080fd5b50610303610703565b6040518082815260200191505060405180910390f35b34801561032557600080fd5b506103686004803603602081101561033c57600080fd5b81019080803573ffffffffffffffffffffffffffffffffffffffff16906020019092919050505061070d565b005b60035481565b6000809054906101000a900473ffffffffffffffffffffffffffffffffffffffff1673ffffffffffffffffffffffffffffffffffffffff163373ffffffffffffffffffffffffffffffffffffffff16146103c957600080fd5b662386f26fc1000034116103dc57600080fd5b80600190805190602001906103f29291906107cf565b5034600281905550600060038190555060035460018054905011156104a95760016003548154811061042057fe5b9060005260206000200160009054906101000a900473ffffffffffffffffffffffffffffffffffffffff1673ffffffffffffffffffffffffffffffffffffffff166108fc3073ffffffffffffffffffffffffffffffffffffffff16319081150290604051600060405180830381858888f193505050501580156104a7573d6000803e3d6000fd5b505b50565b6002543073ffffffffffffffffffffffffffffffffffffffff1631111561060c5760018080549050036003541161058b576003600081548092919060010191905055506001600354815481106104fe57fe5b9060005260206000200160009054906101000a900473ffffffffffffffffffffffffffffffffffffffff1673ffffffffffffffffffffffffffffffffffffffff166108fc3073ffffffffffffffffffffffffffffffffffffffff16319081150290604051600060405180830381858888f19350505050158015610585573d6000803e3d6000fd5b5061060b565b6000809054906101000a900473ffffffffffffffffffffffffffffffffffffffff1673ffffffffffffffffffffffffffffffffffffffff166108fc3073ffffffffffffffffffffffffffffffffffffffff16319081150290604051600060405180830381858888f19350505050158015610609573d6000803e3d6000fd5b505b5b565b6060600180548060200260200160405190810160405280929190818152602001828054801561069257602002820191906000526020600020905b8160009054906101000a900473ffffffffffffffffffffffffffffffffffffffff1673ffffffffffffffffffffffffffffffffffffffff1681526020019060010190808311610648575b5050505050905090565b600181815481106106a957fe5b906000526020600020016000915054906101000a900473ffffffffffffffffffffffffffffffffffffffff1681565b60025481565b6000809054906101000a900473ffffffffffffffffffffffffffffffffffffffff1681565b6000600254905090565b6000809054906101000a900473ffffffffffffffffffffffffffffffffffffffff1673ffffffffffffffffffffffffffffffffffffffff163373ffffffffffffffffffffffffffffffffffffffff161461076657600080fd5b60018190806001815401808255809150509060018203906000526020600020016000909192909190916101000a81548173ffffffffffffffffffffffffffffffffffffffff021916908373ffffffffffffffffffffffffffffffffffffffff1602179055505050565b828054828255906000526020600020908101928215610848579160200282015b828111156108475782518260006101000a81548173ffffffffffffffffffffffffffffffffffffffff021916908373ffffffffffffffffffffffffffffffffffffffff160217905550916020019190600101906107ef565b5b5090506108559190610859565b5090565b61089991905b8082111561089557600081816101000a81549073ffffffffffffffffffffffffffffffffffffffff02191690555060010161085f565b5090565b9056fea165627a7a7230582052656f2f56dd7bfe4c936b8243617c3b22b89f3272288ce2d1ab48b9d326ab290029",
  "source": "pragma solidity >=0.4.21 <0.6.0;\r\n\r\ncontract Recycloan {\r\n    address payable public lender;\r\n    address payable[] public borrowers;\r\n    uint public amount;\r\n    uint public index;\r\n    \r\n    constructor() public {\r\n        lender = msg.sender;\r\n    }\r\n\r\n    function lend(address payable[] memory initialBorrowers) public payable restricted {\r\n        require(msg.value > .01 ether);\r\n        borrowers = initialBorrowers;\r\n        amount = msg.value;\r\n        index = 0;\r\n        if (borrowers.length > index) {\r\n            borrowers[index].transfer(address(this).balance);\r\n        }\r\n    }\r\n\r\n    function repay() public {\r\n        if (address(this).balance > amount) {\r\n            if (index <= borrowers.length - 1) {\r\n                index++;\r\n                borrowers[index].transfer(address(this).balance);\r\n            } else {\r\n                lender.transfer(address(this).balance);\r\n            }\r\n        }\r\n    }\r\n\r\n    function addBorrower(address payable borrower) public restricted {\r\n        borrowers.push(borrower);\r\n    }\r\n   \r\n    function getBorrowers() public view returns(address payable[] memory) {\r\n        return borrowers;\r\n    }\r\n\r\n    function getAmount() public view returns(uint) {\r\n        return amount;\r\n    }\r\n    \r\n    modifier restricted() {\r\n        require(msg.sender == lender);\r\n        _;\r\n    }\r\n}",
  "sourcePath": "C:/Users/Brian/Projects/Recycloan/Harmony/harmony20/harmonyERC20/contracts/Recycloan.sol",
  "compiler": {
    "name": "solc",
    "version": "0.5.8+commit.23d335f2.Emscripten.clang"
  },
  "schemaVersion": "3.2.5",
  "updatedAt": "2020-09-26T19:58:45.929Z",
  "networkType": "ethereum",
  "devdoc": {
    "methods": {}
  },
  "userdoc": {
    "methods": {}
  }
}